{
  "address": "0x34B14eB6FEFe231Ee902FBa4986A1d66d29B51Ec",
  "abi": [
    {
      "anonymous": false,
      "inputs": [
        {
          "indexed": true,
          "internalType": "uint256",
          "name": "pageId",
          "type": "uint256"
        },
        {
          "indexed": true,
          "internalType": "address",
          "name": "owner",
          "type": "address"
        },
        {
          "indexed": false,
          "internalType": "string",
          "name": "title",
          "type": "string"
        },
        {
          "indexed": false,
          "internalType": "uint256",
          "name": "totalSize",
          "type": "uint256"
        },
        {
          "indexed": false,
          "internalType": "string",
          "name": "mimeType",
          "type": "string"
        }
      ],
      "name": "PageDeployed",
      "type": "event"
    },
    {
      "anonymous": false,
      "inputs": [
        {
          "indexed": true,
          "internalType": "uint256",
          "name": "pageId",
          "type": "uint256"
        },
        {
          "indexed": true,
          "internalType": "address",
          "name": "tipper",
          "type": "address"
        },
        {
          "indexed": false,
          "internalType": "uint256",
          "name": "amount",
          "type": "uint256"
        }
      ],
      "name": "TipSent",
      "type": "event"
    },
    {
      "inputs": [
        {
          "internalType": "string",
          "name": "_title",
          "type": "string"
        },
        {
          "internalType": "string[]",
          "name": "_contentChunks",
          "type": "string[]"
        },
        {
          "internalType": "string",
          "name": "_mimeType",
          "type": "string"
        }
      ],
      "name": "deployPage",
      "outputs": [],
      "stateMutability": "nonpayable",
      "type": "function"
    },
    {
      "inputs": [],
      "name": "getAllPages",
      "outputs": [
        {
          "components": [
            {
              "internalType": "uint256",
              "name": "id",
              "type": "uint256"
            },
            {
              "internalType": "address",
              "name": "owner",
              "type": "address"
            },
            {
              "internalType": "string",
              "name": "title",
              "type": "string"
            },
            {
              "internalType": "string[]",
              "name": "contentChunks",
              "type": "string[]"
            },
            {
              "internalType": "string",
              "name": "mimeType",
              "type": "string"
            },
            {
              "internalType": "uint256",
              "name": "totalSize",
              "type": "uint256"
            },
            {
              "internalType": "uint256",
              "name": "createdAt",
              "type": "uint256"
            },
            {
              "internalType": "uint256",
              "name": "totalTips",
              "type": "uint256"
            }
          ],
          "internalType": "struct YourContract.Page[]",
          "name": "",
          "type": "tuple[]"
        }
      ],
      "stateMutability": "view",
      "type": "function"
    },
    {
      "inputs": [
        {
          "internalType": "uint256",
          "name": "_pageId",
          "type": "uint256"
        }
      ],
      "name": "getPage",
      "outputs": [
        {
          "components": [
            {
              "internalType": "uint256",
              "name": "id",
              "type": "uint256"
            },
            {
              "internalType": "address",
              "name": "owner",
              "type": "address"
            },
            {
              "internalType": "string",
              "name": "title",
              "type": "string"
            },
            {
              "internalType": "string[]",
              "name": "contentChunks",
              "type": "string[]"
            },
            {
              "internalType": "string",
              "name": "mimeType",
              "type": "string"
            },
            {
              "internalType": "uint256",
              "name": "totalSize",
              "type": "uint256"
            },
            {
              "internalType": "uint256",
              "name": "createdAt",
              "type": "uint256"
            },
            {
              "internalType": "uint256",
              "name": "totalTips",
              "type": "uint256"
            }
          ],
          "internalType": "struct YourContract.Page",
          "name": "",
          "type": "tuple"
        }
      ],
      "stateMutability": "view",
      "type": "function"
    },
    {
      "inputs": [],
      "name": "getTotalPages",
      "outputs": [
        {
          "internalType": "uint256",
          "name": "",
          "type": "uint256"
        }
      ],
      "stateMutability": "view",
      "type": "function"
    },
    {
      "inputs": [
        {
          "internalType": "address",
          "name": "",
          "type": "address"
        },
        {
          "internalType": "uint256",
          "name": "",
          "type": "uint256"
        }
      ],
      "name": "ownerToPageIds",
      "outputs": [
        {
          "internalType": "uint256",
          "name": "",
          "type": "uint256"
        }
      ],
      "stateMutability": "view",
      "type": "function"
    },
    {
      "inputs": [
        {
          "internalType": "uint256",
          "name": "",
          "type": "uint256"
        }
      ],
      "name": "pages",
      "outputs": [
        {
          "internalType": "uint256",
          "name": "id",
          "type": "uint256"
        },
        {
          "internalType": "address",
          "name": "owner",
          "type": "address"
        },
        {
          "internalType": "string",
          "name": "title",
          "type": "string"
        },
        {
          "internalType": "string",
          "name": "mimeType",
          "type": "string"
        },
        {
          "internalType": "uint256",
          "name": "totalSize",
          "type": "uint256"
        },
        {
          "internalType": "uint256",
          "name": "createdAt",
          "type": "uint256"
        },
        {
          "internalType": "uint256",
          "name": "totalTips",
          "type": "uint256"
        }
      ],
      "stateMutability": "view",
      "type": "function"
    },
    {
      "inputs": [
        {
          "internalType": "uint256",
          "name": "_pageId",
          "type": "uint256"
        }
      ],
      "name": "tip",
      "outputs": [],
      "stateMutability": "payable",
      "type": "function"
    }
  ],
  "transactionHash": "0x0204dedf3b2a7aa67448bd7825fcf664e60ca18d1228ad24dd161846a6b09ba1",
  "args": [],
  "numDeployments": 1,
  "solcInputHash": "b0597516823befb9acb078b9f2237ec2",
  "bytecode": "0x608060405234801561001057600080fd5b5061144c806100206000396000f3fe6080604052600436106100705760003560e01c80634386fc3c1161004e5780634386fc3c146100ec5780635c3e9cc21461010e57806366e8446014610141578063e8b69bc31461016157600080fd5b80630734961014610075578063137a3c96146100a05780633f5ad8fb146100cd575b600080fd5b34801561008157600080fd5b5061008a610174565b6040516100979190610f3e565b60405180910390f35b3480156100ac57600080fd5b506100c06100bb366004610fa0565b6104c4565b6040516100979190610fb9565b3480156100d957600080fd5b506000545b604051908152602001610097565b3480156100f857600080fd5b5061010c61010736600461108a565b610728565b005b34801561011a57600080fd5b5061012e610129366004610fa0565b6109c9565b6040516100979796959493929190611193565b34801561014d57600080fd5b506100de61015c3660046111ef565b610b1f565b61010c61016f366004610fa0565b610b50565b600080546060918190036101ba5760408051600080825260208201909252906101b3565b6101a0610cff565b8152602001906001900390816101985790505b5091505090565b60008167ffffffffffffffff8111156101d5576101d5610fd3565b60405190808252806020026020018201604052801561020e57816020015b6101fb610cff565b8152602001906001900390816101f35790505b50905060005b828110156104bd5760008161022a60018661123d565b610234919061123d565b60008181526001602081815260409283902083516101008101855281548152928101546001600160a01b031691830191909152600281018054949550919390928401919061028190611256565b80601f01602080910402602001604051908101604052809291908181526020018280546102ad90611256565b80156102fa5780601f106102cf576101008083540402835291602001916102fa565b820191906000526020600020905b8154815290600101906020018083116102dd57829003601f168201915b5050505050815260200160038201805480602002602001604051908101604052809291908181526020016000905b828210156103d457838290600052602060002001805461034790611256565b80601f016020809104026020016040519081016040528092919081815260200182805461037390611256565b80156103c05780601f10610395576101008083540402835291602001916103c0565b820191906000526020600020905b8154815290600101906020018083116103a357829003601f168201915b505050505081526020019060010190610328565b5050505081526020016004820180546103ec90611256565b80601f016020809104026020016040519081016040528092919081815260200182805461041890611256565b80156104655780601f1061043a57610100808354040283529160200191610465565b820191906000526020600020905b81548152906001019060200180831161044857829003601f168201915b50505050508152602001600582015481526020016006820154815260200160078201548152505083838151811061049e5761049e611290565b60200260200101819052505080806104b5906112a6565b915050610214565b5092915050565b6104cc610cff565b60008281526001602081815260409283902083516101008101855281548152928101546001600160a01b031691830191909152600281018054929391929184019161051690611256565b80601f016020809104026020016040519081016040528092919081815260200182805461054290611256565b801561058f5780601f106105645761010080835404028352916020019161058f565b820191906000526020600020905b81548152906001019060200180831161057257829003601f168201915b5050505050815260200160038201805480602002602001604051908101604052809291908181526020016000905b828210156106695783829060005260206000200180546105dc90611256565b80601f016020809104026020016040519081016040528092919081815260200182805461060890611256565b80156106555780601f1061062a57610100808354040283529160200191610655565b820191906000526020600020905b81548152906001019060200180831161063857829003601f168201915b5050505050815260200190600101906105bd565b50505050815260200160048201805461068190611256565b80601f01602080910402602001604051908101604052809291908181526020018280546106ad90611256565b80156106fa5780601f106106cf576101008083540402835291602001916106fa565b820191906000526020600020905b8154815290600101906020018083116106dd57829003601f168201915b5050505050815260200160058201548152602001600682015481526020016007820154815250509050919050565b60008351116107775760405162461bcd60e51b81526020600482015260166024820152752a34ba36329031b0b73737ba1031329032b6b83a3c9760511b60448201526064015b60405180910390fd5b60008251116107c85760405162461bcd60e51b815260206004820152601860248201527f436f6e74656e742063616e6e6f7420626520656d7074792e0000000000000000604482015260640161076e565b60008054908190806107d9836112a6565b91905055506000805b8451811015610825578481815181106107fd576107fd611290565b6020026020010151518261081191906112bf565b91508061081d816112a6565b9150506107e2565b50621000008111156108875760405162461bcd60e51b815260206004820152602560248201527f546f74616c20636f6e74656e742073697a65206578636565647320314d42206c60448201526434b6b4ba1760d91b606482015260840161076e565b6040805161010081018252838152336020808301918252828401898152606084018990526080840188905260a084018690524260c0850152600060e085018190528781526001928390529490942083518155915190820180546001600160a01b0319166001600160a01b039092169190911790559151909190600282019061090f9082611321565b506060820151805161092b916003840191602090910190610d4d565b50608082015160048201906109409082611321565b5060a0820151600582015560c0820151600682015560e090910151600790910155336000818152600260209081526040808320805460018101825590845291909220018490555183907f27cc83622d86f752f8fe8a932db4895f80025c9a7ac853026271f3bb4ccccb4a906109ba908990869089906113e1565b60405180910390a35050505050565b60016020819052600091825260409091208054918101546002820180546001600160a01b0390921692916109fc90611256565b80601f0160208091040260200160405190810160405280929190818152602001828054610a2890611256565b8015610a755780601f10610a4a57610100808354040283529160200191610a75565b820191906000526020600020905b815481529060010190602001808311610a5857829003601f168201915b505050505090806004018054610a8a90611256565b80601f0160208091040260200160405190810160405280929190818152602001828054610ab690611256565b8015610b035780601f10610ad857610100808354040283529160200191610b03565b820191906000526020600020905b815481529060010190602001808311610ae657829003601f168201915b5050505050908060050154908060060154908060070154905087565b60026020528160005260406000208181548110610b3b57600080fd5b90600052602060002001600091509150505481565b60003411610bae5760405162461bcd60e51b815260206004820152602560248201527f54697020616d6f756e74206d7573742062652067726561746572207468616e206044820152643d32b9379760d91b606482015260840161076e565b6000818152600160208190526040909120908101546001600160a01b0316610c0f5760405162461bcd60e51b81526020600482015260146024820152732830b3b2903237b2b9903737ba1032bc34b9ba1760611b604482015260640161076e565b34816007016000828254610c2391906112bf565b909155505060018101546040516000916001600160a01b03169034908381818185875af1925050503d8060008114610c77576040519150601f19603f3d011682016040523d82523d6000602084013e610c7c565b606091505b5050905080610cc35760405162461bcd60e51b81526020600482015260136024820152722330b4b632b2103a379039b2b732103a34b81760691b604482015260640161076e565b604051348152339084907faa7ac8ddacc291d916d6cf40358c9fc2d5d375d14f36e3ffb346a8eb30a162099060200160405180910390a3505050565b6040518061010001604052806000815260200160006001600160a01b031681526020016060815260200160608152602001606081526020016000815260200160008152602001600081525090565b828054828255906000526020600020908101928215610d93579160200282015b82811115610d935782518290610d839082611321565b5091602001919060010190610d6d565b50610d9f929150610da3565b5090565b80821115610d9f576000610db78282610dc0565b50600101610da3565b508054610dcc90611256565b6000825580601f10610ddc575050565b601f016020900490600052602060002090810190610dfa9190610dfd565b50565b5b80821115610d9f5760008155600101610dfe565b6000815180845260005b81811015610e3857602081850181015186830182015201610e1c565b506000602082860101526020601f19601f83011685010191505092915050565b600081518084526020808501808196508360051b8101915082860160005b85811015610ea0578284038952610e8e848351610e12565b98850198935090840190600101610e76565b5091979650505050505050565b60006101008251845260018060a01b0360208401511660208501526040830151816040860152610edf82860182610e12565b91505060608301518482036060860152610ef98282610e58565b91505060808301518482036080860152610f138282610e12565b91505060a083015160a085015260c083015160c085015260e083015160e08501528091505092915050565b6000602080830181845280855180835260408601915060408160051b870101925083870160005b82811015610f9357603f19888603018452610f81858351610ead565b94509285019290850190600101610f65565b5092979650505050505050565b600060208284031215610fb257600080fd5b5035919050565b602081526000610fcc6020830184610ead565b9392505050565b634e487b7160e01b600052604160045260246000fd5b604051601f8201601f1916810167ffffffffffffffff8111828210171561101257611012610fd3565b604052919050565b600082601f83011261102b57600080fd5b813567ffffffffffffffff81111561104557611045610fd3565b611058601f8201601f1916602001610fe9565b81815284602083860101111561106d57600080fd5b816020850160208301376000918101602001919091529392505050565b60008060006060848603121561109f57600080fd5b833567ffffffffffffffff808211156110b757600080fd5b6110c38783880161101a565b94506020915081860135818111156110da57600080fd5b8601601f810188136110eb57600080fd5b8035828111156110fd576110fd610fd3565b8060051b61110c858201610fe9565b918252828101850191858101908b84111561112657600080fd5b86850192505b83831015611162578235868111156111445760008081fd5b6111528d898389010161101a565b835250918601919086019061112c565b975050505060408701359250508082111561117c57600080fd5b506111898682870161101a565b9150509250925092565b8781526001600160a01b038716602082015260e0604082018190526000906111bd90830188610e12565b82810360608401526111cf8188610e12565b6080840196909652505060a081019290925260c090910152949350505050565b6000806040838503121561120257600080fd5b82356001600160a01b038116811461121957600080fd5b946020939093013593505050565b634e487b7160e01b600052601160045260246000fd5b8181038181111561125057611250611227565b92915050565b600181811c9082168061126a57607f821691505b60208210810361128a57634e487b7160e01b600052602260045260246000fd5b50919050565b634e487b7160e01b600052603260045260246000fd5b6000600182016112b8576112b8611227565b5060010190565b8082018082111561125057611250611227565b601f82111561131c57600081815260208120601f850160051c810160208610156112f95750805b601f850160051c820191505b8181101561131857828155600101611305565b5050505b505050565b815167ffffffffffffffff81111561133b5761133b610fd3565b61134f816113498454611256565b846112d2565b602080601f831160018114611384576000841561136c5750858301515b600019600386901b1c1916600185901b178555611318565b600085815260208120601f198616915b828110156113b357888601518255948401946001909101908401611394565b50858210156113d15787850151600019600388901b60f8161c191681555b5050505050600190811b01905550565b6060815260006113f46060830186610e12565b846020840152828103604084015261140c8185610e12565b969550505050505056fea264697066735822122051288611a82d5813a5571bcd5640a0f3a2969a957829c69b202332c72e3be49c64736f6c63430008140033",
  "devdoc": {
    "author": "Your Name",
    "kind": "dev",
    "methods": {
      "deployPage(string,string[],string)": {
        "params": {
          "_contentChunks": "The page content, pre-split into chunks by the frontend.",
          "_mimeType": "The MIME type of the file being uploaded.",
          "_title": "The title for the page."
        }
      },
      "getAllPages()": {
        "returns": {
          "_0": "An array of Page structs."
        }
      },
      "getPage(uint256)": {
        "params": {
          "_pageId": "The ID of the page to query."
        },
        "returns": {
          "_0": "A Page struct containing all page data."
        }
      },
      "getTotalPages()": {
        "returns": {
          "_0": "The current value of the page ID counter."
        }
      },
      "tip(uint256)": {
        "params": {
          "_pageId": "The ID of the page to send a tip to."
        }
      }
    },
    "title": "YourContract (Monad Pages)",
    "version": 1
  },
  "userdoc": {
    "kind": "user",
    "methods": {
      "deployPage(string,string[],string)": {
        "notice": "Deploys a new page by storing its content on-chain."
      },
      "getAllPages()": {
        "notice": "Fetches all pages in reverse chronological order for the homepage feed."
      },
      "getPage(uint256)": {
        "notice": "Retrieves all data for a specific page."
      },
      "getTotalPages()": {
        "notice": "Returns the total number of pages ever deployed."
      },
      "tip(uint256)": {
        "notice": "Sends a tip (in the native currency) to the owner of a page."
      }
    },
    "notice": "This contract allows users to deploy static websites (called \"Pages\") fully on-chain by storing their content in chunks. It also includes a tip jar. This version is designed for Scaffold-ETH 2 and OpenZeppelin v5+.",
    "version": 1
  },
  "storageLayout": {
    "storage": [
      {
        "astId": 5,
        "contract": "contracts/YourContract.sol:YourContract",
        "label": "_pageCounter",
        "offset": 0,
        "slot": "0",
        "type": "t_uint256"
      },
      {
        "astId": 28,
        "contract": "contracts/YourContract.sol:YourContract",
        "label": "pages",
        "offset": 0,
        "slot": "1",
        "type": "t_mapping(t_uint256,t_struct(Page)23_storage)"
      },
      {
        "astId": 33,
        "contract": "contracts/YourContract.sol:YourContract",
        "label": "ownerToPageIds",
        "offset": 0,
        "slot": "2",
        "type": "t_mapping(t_address,t_array(t_uint256)dyn_storage)"
      }
    ],
    "types": {
      "t_address": {
        "encoding": "inplace",
        "label": "address",
        "numberOfBytes": "20"
      },
      "t_array(t_string_storage)dyn_storage": {
        "base": "t_string_storage",
        "encoding": "dynamic_array",
        "label": "string[]",
        "numberOfBytes": "32"
      },
      "t_array(t_uint256)dyn_storage": {
        "base": "t_uint256",
        "encoding": "dynamic_array",
        "label": "uint256[]",
        "numberOfBytes": "32"
      },
      "t_mapping(t_address,t_array(t_uint256)dyn_storage)": {
        "encoding": "mapping",
        "key": "t_address",
        "label": "mapping(address => uint256[])",
        "numberOfBytes": "32",
        "value": "t_array(t_uint256)dyn_storage"
      },
      "t_mapping(t_uint256,t_struct(Page)23_storage)": {
        "encoding": "mapping",
        "key": "t_uint256",
        "label": "mapping(uint256 => struct YourContract.Page)",
        "numberOfBytes": "32",
        "value": "t_struct(Page)23_storage"
      },
      "t_string_storage": {
        "encoding": "bytes",
        "label": "string",
        "numberOfBytes": "32"
      },
      "t_struct(Page)23_storage": {
        "encoding": "inplace",
        "label": "struct YourContract.Page",
        "members": [
          {
            "astId": 7,
            "contract": "contracts/YourContract.sol:YourContract",
            "label": "id",
            "offset": 0,
            "slot": "0",
            "type": "t_uint256"
          },
          {
            "astId": 9,
            "contract": "contracts/YourContract.sol:YourContract",
            "label": "owner",
            "offset": 0,
            "slot": "1",
            "type": "t_address"
          },
          {
            "astId": 11,
            "contract": "contracts/YourContract.sol:YourContract",
            "label": "title",
            "offset": 0,
            "slot": "2",
            "type": "t_string_storage"
          },
          {
            "astId": 14,
            "contract": "contracts/YourContract.sol:YourContract",
            "label": "contentChunks",
            "offset": 0,
            "slot": "3",
            "type": "t_array(t_string_storage)dyn_storage"
          },
          {
            "astId": 16,
            "contract": "contracts/YourContract.sol:YourContract",
            "label": "mimeType",
            "offset": 0,
            "slot": "4",
            "type": "t_string_storage"
          },
          {
            "astId": 18,
            "contract": "contracts/YourContract.sol:YourContract",
            "label": "totalSize",
            "offset": 0,
            "slot": "5",
            "type": "t_uint256"
          },
          {
            "astId": 20,
            "contract": "contracts/YourContract.sol:YourContract",
            "label": "createdAt",
            "offset": 0,
            "slot": "6",
            "type": "t_uint256"
          },
          {
            "astId": 22,
            "contract": "contracts/YourContract.sol:YourContract",
            "label": "totalTips",
            "offset": 0,
            "slot": "7",
            "type": "t_uint256"
          }
        ],
        "numberOfBytes": "256"
      },
      "t_uint256": {
        "encoding": "inplace",
        "label": "uint256",
        "numberOfBytes": "32"
      }
    }
  }
}